{
  "_format": "hh-sol-artifact-1",
  "contractName": "NFT",
  "sourceName": "contracts/BurgerMintParty.sol",
  "abi": [
    {
      "inputs": [
        {
          "internalType": "string",
          "name": "_name",
          "type": "string"
        },
        {
          "internalType": "string",
          "name": "_symbol",
          "type": "string"
        },
        {
          "internalType": "string",
          "name": "_initBaseURI",
          "type": "string"
        },
        {
          "internalType": "string",
          "name": "_initNotRevealedUri",
          "type": "string"
        }
      ],
      "stateMutability": "nonpayable",
      "type": "constructor"
    },
    {
      "anonymous": false,
      "inputs": [
        {
          "indexed": true,
          "internalType": "address",
          "name": "owner",
          "type": "address"
        },
        {
          "indexed": true,
          "internalType": "address",
          "name": "approved",
          "type": "address"
        },
        {
          "indexed": true,
          "internalType": "uint256",
          "name": "tokenId",
          "type": "uint256"
        }
      ],
      "name": "Approval",
      "type": "event"
    },
    {
      "anonymous": false,
      "inputs": [
        {
          "indexed": true,
          "internalType": "address",
          "name": "owner",
          "type": "address"
        },
        {
          "indexed": true,
          "internalType": "address",
          "name": "operator",
          "type": "address"
        },
        {
          "indexed": false,
          "internalType": "bool",
          "name": "approved",
          "type": "bool"
        }
      ],
      "name": "ApprovalForAll",
      "type": "event"
    },
    {
      "anonymous": false,
      "inputs": [
        {
          "indexed": true,
          "internalType": "address",
          "name": "previousOwner",
          "type": "address"
        },
        {
          "indexed": true,
          "internalType": "address",
          "name": "newOwner",
          "type": "address"
        }
      ],
      "name": "OwnershipTransferred",
      "type": "event"
    },
    {
      "anonymous": false,
      "inputs": [
        {
          "indexed": true,
          "internalType": "address",
          "name": "from",
          "type": "address"
        },
        {
          "indexed": true,
          "internalType": "address",
          "name": "to",
          "type": "address"
        },
        {
          "indexed": true,
          "internalType": "uint256",
          "name": "tokenId",
          "type": "uint256"
        }
      ],
      "name": "Transfer",
      "type": "event"
    },
    {
      "inputs": [
        {
          "internalType": "address",
          "name": "to",
          "type": "address"
        },
        {
          "internalType": "uint256",
          "name": "tokenId",
          "type": "uint256"
        }
      ],
      "name": "approve",
      "outputs": [],
      "stateMutability": "nonpayable",
      "type": "function"
    },
    {
      "inputs": [
        {
          "internalType": "address",
          "name": "owner",
          "type": "address"
        }
      ],
      "name": "balanceOf",
      "outputs": [
        {
          "internalType": "uint256",
          "name": "",
          "type": "uint256"
        }
      ],
      "stateMutability": "view",
      "type": "function"
    },
    {
      "inputs": [],
      "name": "baseExtension",
      "outputs": [
        {
          "internalType": "string",
          "name": "",
          "type": "string"
        }
      ],
      "stateMutability": "view",
      "type": "function"
    },
    {
      "inputs": [],
      "name": "cost",
      "outputs": [
        {
          "internalType": "uint256",
          "name": "",
          "type": "uint256"
        }
      ],
      "stateMutability": "view",
      "type": "function"
    },
    {
      "inputs": [
        {
          "internalType": "uint256",
          "name": "tokenId",
          "type": "uint256"
        }
      ],
      "name": "getApproved",
      "outputs": [
        {
          "internalType": "address",
          "name": "",
          "type": "address"
        }
      ],
      "stateMutability": "view",
      "type": "function"
    },
    {
      "inputs": [
        {
          "internalType": "address",
          "name": "owner",
          "type": "address"
        },
        {
          "internalType": "address",
          "name": "operator",
          "type": "address"
        }
      ],
      "name": "isApprovedForAll",
      "outputs": [
        {
          "internalType": "bool",
          "name": "",
          "type": "bool"
        }
      ],
      "stateMutability": "view",
      "type": "function"
    },
    {
      "inputs": [],
      "name": "maxMintAmount",
      "outputs": [
        {
          "internalType": "uint256",
          "name": "",
          "type": "uint256"
        }
      ],
      "stateMutability": "view",
      "type": "function"
    },
    {
      "inputs": [],
      "name": "maxSupply",
      "outputs": [
        {
          "internalType": "uint256",
          "name": "",
          "type": "uint256"
        }
      ],
      "stateMutability": "view",
      "type": "function"
    },
    {
      "inputs": [
        {
          "internalType": "uint256",
          "name": "_mintAmount",
          "type": "uint256"
        }
      ],
      "name": "mint",
      "outputs": [],
      "stateMutability": "payable",
      "type": "function"
    },
    {
      "inputs": [],
      "name": "minterdTokenCount",
      "outputs": [
        {
          "internalType": "uint256",
          "name": "",
          "type": "uint256"
        }
      ],
      "stateMutability": "view",
      "type": "function"
    },
    {
      "inputs": [],
      "name": "name",
      "outputs": [
        {
          "internalType": "string",
          "name": "",
          "type": "string"
        }
      ],
      "stateMutability": "view",
      "type": "function"
    },
    {
      "inputs": [],
      "name": "notRevealedUri",
      "outputs": [
        {
          "internalType": "string",
          "name": "",
          "type": "string"
        }
      ],
      "stateMutability": "view",
      "type": "function"
    },
    {
      "inputs": [],
      "name": "owner",
      "outputs": [
        {
          "internalType": "address",
          "name": "",
          "type": "address"
        }
      ],
      "stateMutability": "view",
      "type": "function"
    },
    {
      "inputs": [
        {
          "internalType": "uint256",
          "name": "tokenId",
          "type": "uint256"
        }
      ],
      "name": "ownerOf",
      "outputs": [
        {
          "internalType": "address",
          "name": "",
          "type": "address"
        }
      ],
      "stateMutability": "view",
      "type": "function"
    },
    {
      "inputs": [
        {
          "internalType": "bool",
          "name": "_state",
          "type": "bool"
        }
      ],
      "name": "pause",
      "outputs": [],
      "stateMutability": "nonpayable",
      "type": "function"
    },
    {
      "inputs": [],
      "name": "paused",
      "outputs": [
        {
          "internalType": "bool",
          "name": "",
          "type": "bool"
        }
      ],
      "stateMutability": "view",
      "type": "function"
    },
    {
      "inputs": [],
      "name": "renounceOwnership",
      "outputs": [],
      "stateMutability": "nonpayable",
      "type": "function"
    },
    {
      "inputs": [],
      "name": "reveal",
      "outputs": [],
      "stateMutability": "nonpayable",
      "type": "function"
    },
    {
      "inputs": [],
      "name": "revealed",
      "outputs": [
        {
          "internalType": "bool",
          "name": "",
          "type": "bool"
        }
      ],
      "stateMutability": "view",
      "type": "function"
    },
    {
      "inputs": [
        {
          "internalType": "address",
          "name": "from",
          "type": "address"
        },
        {
          "internalType": "address",
          "name": "to",
          "type": "address"
        },
        {
          "internalType": "uint256",
          "name": "tokenId",
          "type": "uint256"
        }
      ],
      "name": "safeTransferFrom",
      "outputs": [],
      "stateMutability": "nonpayable",
      "type": "function"
    },
    {
      "inputs": [
        {
          "internalType": "address",
          "name": "from",
          "type": "address"
        },
        {
          "internalType": "address",
          "name": "to",
          "type": "address"
        },
        {
          "internalType": "uint256",
          "name": "tokenId",
          "type": "uint256"
        },
        {
          "internalType": "bytes",
          "name": "_data",
          "type": "bytes"
        }
      ],
      "name": "safeTransferFrom",
      "outputs": [],
      "stateMutability": "nonpayable",
      "type": "function"
    },
    {
      "inputs": [
        {
          "internalType": "address",
          "name": "operator",
          "type": "address"
        },
        {
          "internalType": "bool",
          "name": "approved",
          "type": "bool"
        }
      ],
      "name": "setApprovalForAll",
      "outputs": [],
      "stateMutability": "nonpayable",
      "type": "function"
    },
    {
      "inputs": [
        {
          "internalType": "string",
          "name": "_newBaseExtension",
          "type": "string"
        }
      ],
      "name": "setBaseExtension",
      "outputs": [],
      "stateMutability": "nonpayable",
      "type": "function"
    },
    {
      "inputs": [
        {
          "internalType": "string",
          "name": "_newBaseURI",
          "type": "string"
        }
      ],
      "name": "setBaseURI",
      "outputs": [],
      "stateMutability": "nonpayable",
      "type": "function"
    },
    {
      "inputs": [
        {
          "internalType": "uint256",
          "name": "_newCost",
          "type": "uint256"
        }
      ],
      "name": "setCost",
      "outputs": [],
      "stateMutability": "nonpayable",
      "type": "function"
    },
    {
      "inputs": [
        {
          "internalType": "string",
          "name": "_notRevealedURI",
          "type": "string"
        }
      ],
      "name": "setNotRevealedURI",
      "outputs": [],
      "stateMutability": "nonpayable",
      "type": "function"
    },
    {
      "inputs": [
        {
          "internalType": "uint256",
          "name": "_newmaxMintAmount",
          "type": "uint256"
        }
      ],
      "name": "setmaxMintAmount",
      "outputs": [],
      "stateMutability": "nonpayable",
      "type": "function"
    },
    {
      "inputs": [
        {
          "internalType": "bytes4",
          "name": "interfaceId",
          "type": "bytes4"
        }
      ],
      "name": "supportsInterface",
      "outputs": [
        {
          "internalType": "bool",
          "name": "",
          "type": "bool"
        }
      ],
      "stateMutability": "view",
      "type": "function"
    },
    {
      "inputs": [],
      "name": "symbol",
      "outputs": [
        {
          "internalType": "string",
          "name": "",
          "type": "string"
        }
      ],
      "stateMutability": "view",
      "type": "function"
    },
    {
      "inputs": [
        {
          "internalType": "uint256",
          "name": "index",
          "type": "uint256"
        }
      ],
      "name": "tokenByIndex",
      "outputs": [
        {
          "internalType": "uint256",
          "name": "",
          "type": "uint256"
        }
      ],
      "stateMutability": "view",
      "type": "function"
    },
    {
      "inputs": [
        {
          "internalType": "address",
          "name": "owner",
          "type": "address"
        },
        {
          "internalType": "uint256",
          "name": "index",
          "type": "uint256"
        }
      ],
      "name": "tokenOfOwnerByIndex",
      "outputs": [
        {
          "internalType": "uint256",
          "name": "",
          "type": "uint256"
        }
      ],
      "stateMutability": "view",
      "type": "function"
    },
    {
      "inputs": [
        {
          "internalType": "uint256",
          "name": "tokenId",
          "type": "uint256"
        }
      ],
      "name": "tokenURI",
      "outputs": [
        {
          "internalType": "string",
          "name": "",
          "type": "string"
        }
      ],
      "stateMutability": "view",
      "type": "function"
    },
    {
      "inputs": [],
      "name": "totalSupply",
      "outputs": [
        {
          "internalType": "uint256",
          "name": "",
          "type": "uint256"
        }
      ],
      "stateMutability": "view",
      "type": "function"
    },
    {
      "inputs": [
        {
          "internalType": "address",
          "name": "from",
          "type": "address"
        },
        {
          "internalType": "address",
          "name": "to",
          "type": "address"
        },
        {
          "internalType": "uint256",
          "name": "tokenId",
          "type": "uint256"
        }
      ],
      "name": "transferFrom",
      "outputs": [],
      "stateMutability": "nonpayable",
      "type": "function"
    },
    {
      "inputs": [
        {
          "internalType": "address",
          "name": "newOwner",
          "type": "address"
        }
      ],
      "name": "transferOwnership",
      "outputs": [],
      "stateMutability": "nonpayable",
      "type": "function"
    },
    {
      "inputs": [
        {
          "internalType": "address",
          "name": "_owner",
          "type": "address"
        }
      ],
      "name": "walletOfOwner",
      "outputs": [
        {
          "internalType": "uint256[]",
          "name": "",
          "type": "uint256[]"
        }
      ],
      "stateMutability": "view",
      "type": "function"
    },
    {
      "inputs": [],
      "name": "withdraw",
      "outputs": [],
      "stateMutability": "payable",
      "type": "function"
    }
  ],
  "bytecode": "0x60806040526040518060400160405280600581526020017f2e6a736f6e000000000000000000000000000000000000000000000000000000815250600d908051906020019062000051929190620003a1565b5066b1a2bc2ec50000600e556103e8600f5560036010556000601160006101000a81548160ff0219169083151502179055506000601160016101000a81548160ff021916908315150217905550348015620000ab57600080fd5b5060405162004e3538038062004e358339818101604052810190620000d19190620005ee565b83838160009080519060200190620000eb929190620003a1565b50806001908051906020019062000104929190620003a1565b505050620001276200011b6200015360201b60201c565b6200015b60201b60201c565b62000138826200022160201b60201c565b6200014981620002cc60201b60201c565b50505050620007c4565b600033905090565b6000600a60009054906101000a900473ffffffffffffffffffffffffffffffffffffffff16905081600a60006101000a81548173ffffffffffffffffffffffffffffffffffffffff021916908373ffffffffffffffffffffffffffffffffffffffff1602179055508173ffffffffffffffffffffffffffffffffffffffff168173ffffffffffffffffffffffffffffffffffffffff167f8be0079c531659141344cd1fd0a4f28419497f9722a3daafe3b4186f6b6457e060405160405180910390a35050565b620002316200015360201b60201c565b73ffffffffffffffffffffffffffffffffffffffff16620002576200037760201b60201c565b73ffffffffffffffffffffffffffffffffffffffff1614620002b0576040517f08c379a0000000000000000000000000000000000000000000000000000000008152600401620002a7906200073d565b60405180910390fd5b80600c9080519060200190620002c8929190620003a1565b5050565b620002dc6200015360201b60201c565b73ffffffffffffffffffffffffffffffffffffffff16620003026200037760201b60201c565b73ffffffffffffffffffffffffffffffffffffffff16146200035b576040517f08c379a000000000000000000000000000000000000000000000000000000000815260040162000352906200073d565b60405180910390fd5b806012908051906020019062000373929190620003a1565b5050565b6000600a60009054906101000a900473ffffffffffffffffffffffffffffffffffffffff16905090565b828054620003af906200078e565b90600052602060002090601f016020900481019282620003d357600085556200041f565b82601f10620003ee57805160ff19168380011785556200041f565b828001600101855582156200041f579182015b828111156200041e57825182559160200191906001019062000401565b5b5090506200042e919062000432565b5090565b5b808211156200044d57600081600090555060010162000433565b5090565b6000604051905090565b600080fd5b600080fd5b600080fd5b600080fd5b6000601f19601f8301169050919050565b7f4e487b7100000000000000000000000000000000000000000000000000000000600052604160045260246000fd5b620004ba826200046f565b810181811067ffffffffffffffff82111715620004dc57620004db62000480565b5b80604052505050565b6000620004f162000451565b9050620004ff8282620004af565b919050565b600067ffffffffffffffff82111562000522576200052162000480565b5b6200052d826200046f565b9050602081019050919050565b60005b838110156200055a5780820151818401526020810190506200053d565b838111156200056a576000848401525b50505050565b600062000587620005818462000504565b620004e5565b905082815260208101848484011115620005a657620005a56200046a565b5b620005b38482856200053a565b509392505050565b600082601f830112620005d357620005d262000465565b5b8151620005e584826020860162000570565b91505092915050565b600080600080608085870312156200060b576200060a6200045b565b5b600085015167ffffffffffffffff8111156200062c576200062b62000460565b5b6200063a87828801620005bb565b945050602085015167ffffffffffffffff8111156200065e576200065d62000460565b5b6200066c87828801620005bb565b935050604085015167ffffffffffffffff81111562000690576200068f62000460565b5b6200069e87828801620005bb565b925050606085015167ffffffffffffffff811115620006c257620006c162000460565b5b620006d087828801620005bb565b91505092959194509250565b600082825260208201905092915050565b7f4f776e61626c653a2063616c6c6572206973206e6f7420746865206f776e6572600082015250565b600062000725602083620006dc565b91506200073282620006ed565b602082019050919050565b60006020820190508181036000830152620007588162000716565b9050919050565b7f4e487b7100000000000000000000000000000000000000000000000000000000600052602260045260246000fd5b60006002820490506001821680620007a757607f821691505b60208210811415620007be57620007bd6200075f565b5b50919050565b61466180620007d46000396000f3fe60806040526004361061021a5760003560e01c80635c975abb11610123578063a475b5dd116100ab578063da3ef23f1161006f578063da3ef23f146107a5578063e6c5f066146107ce578063e985e9c5146107f9578063f2c4ce1e14610836578063f2fde38b1461085f5761021a565b8063a475b5dd146106d2578063b88d4fde146106e9578063c668286214610712578063c87b56dd1461073d578063d5abeb011461077a5761021a565b80637f00c7a6116100f25780637f00c7a61461060e5780638da5cb5b1461063757806395d89b4114610662578063a0712d681461068d578063a22cb465146106a95761021a565b80635c975abb146105525780636352211e1461057d57806370a08231146105ba578063715018a6146105f75761021a565b806323b872dd116101a6578063438b630011610175578063438b63001461045b57806344a0d68a146104985780634f6ccce7146104c157806351830227146104fe57806355f804b3146105295761021a565b806323b872dd146103c25780632f745c59146103eb5780633ccfd60b1461042857806342842e0e146104325761021a565b8063081c8c44116101ed578063081c8c44146102ed578063095ea7b31461031857806313faede61461034157806318160ddd1461036c578063239c70ae146103975761021a565b806301ffc9a71461021f57806302329a291461025c57806306fdde0314610285578063081812fc146102b0575b600080fd5b34801561022b57600080fd5b5061024660048036038101906102419190612edf565b610888565b6040516102539190612f27565b60405180910390f35b34801561026857600080fd5b50610283600480360381019061027e9190612f6e565b610902565b005b34801561029157600080fd5b5061029a61099b565b6040516102a79190613034565b60405180910390f35b3480156102bc57600080fd5b506102d760048036038101906102d2919061308c565b610a2d565b6040516102e491906130fa565b60405180910390f35b3480156102f957600080fd5b50610302610ab2565b60405161030f9190613034565b60405180910390f35b34801561032457600080fd5b5061033f600480360381019061033a9190613141565b610b40565b005b34801561034d57600080fd5b50610356610c58565b6040516103639190613190565b60405180910390f35b34801561037857600080fd5b50610381610c5e565b60405161038e9190613190565b60405180910390f35b3480156103a357600080fd5b506103ac610c6b565b6040516103b99190613190565b60405180910390f35b3480156103ce57600080fd5b506103e960048036038101906103e491906131ab565b610c71565b005b3480156103f757600080fd5b50610412600480360381019061040d9190613141565b610cd1565b60405161041f9190613190565b60405180910390f35b610430610d76565b005b34801561043e57600080fd5b50610459600480360381019061045491906131ab565b610e72565b005b34801561046757600080fd5b50610482600480360381019061047d91906131fe565b610e92565b60405161048f91906132e9565b60405180910390f35b3480156104a457600080fd5b506104bf60048036038101906104ba919061308c565b610f40565b005b3480156104cd57600080fd5b506104e860048036038101906104e3919061308c565b610fc6565b6040516104f59190613190565b60405180910390f35b34801561050a57600080fd5b50610513611037565b6040516105209190612f27565b60405180910390f35b34801561053557600080fd5b50610550600480360381019061054b9190613440565b61104a565b005b34801561055e57600080fd5b506105676110e0565b6040516105749190612f27565b60405180910390f35b34801561058957600080fd5b506105a4600480360381019061059f919061308c565b6110f3565b6040516105b191906130fa565b60405180910390f35b3480156105c657600080fd5b506105e160048036038101906105dc91906131fe565b6111a5565b6040516105ee9190613190565b60405180910390f35b34801561060357600080fd5b5061060c61125d565b005b34801561061a57600080fd5b506106356004803603810190610630919061308c565b6112e5565b005b34801561064357600080fd5b5061064c61136b565b60405161065991906130fa565b60405180910390f35b34801561066e57600080fd5b50610677611395565b6040516106849190613034565b60405180910390f35b6106a760048036038101906106a2919061308c565b611427565b005b3480156106b557600080fd5b506106d060048036038101906106cb9190613489565b6115a0565b005b3480156106de57600080fd5b506106e76115b6565b005b3480156106f557600080fd5b50610710600480360381019061070b919061356a565b61164f565b005b34801561071e57600080fd5b506107276116b1565b6040516107349190613034565b60405180910390f35b34801561074957600080fd5b50610764600480360381019061075f919061308c565b61173f565b6040516107719190613034565b60405180910390f35b34801561078657600080fd5b5061078f611898565b60405161079c9190613190565b60405180910390f35b3480156107b157600080fd5b506107cc60048036038101906107c79190613440565b61189e565b005b3480156107da57600080fd5b506107e3611934565b6040516107f09190613190565b60405180910390f35b34801561080557600080fd5b50610820600480360381019061081b91906135ed565b611945565b60405161082d9190612f27565b60405180910390f35b34801561084257600080fd5b5061085d60048036038101906108589190613440565b6119d9565b005b34801561086b57600080fd5b50610886600480360381019061088191906131fe565b611a6f565b005b60007f780e9d63000000000000000000000000000000000000000000000000000000007bffffffffffffffffffffffffffffffffffffffffffffffffffffffff1916827bffffffffffffffffffffffffffffffffffffffffffffffffffffffff191614806108fb57506108fa82611b67565b5b9050919050565b61090a611c49565b73ffffffffffffffffffffffffffffffffffffffff1661092861136b565b73ffffffffffffffffffffffffffffffffffffffff161461097e576040517f08c379a000000000000000000000000000000000000000000000000000000000815260040161097590613679565b60405180910390fd5b80601160006101000a81548160ff02191690831515021790555050565b6060600080546109aa906136c8565b80601f01602080910402602001604051908101604052809291908181526020018280546109d6906136c8565b8015610a235780601f106109f857610100808354040283529160200191610a23565b820191906000526020600020905b815481529060010190602001808311610a0657829003601f168201915b5050505050905090565b6000610a3882611c51565b610a77576040517f08c379a0000000000000000000000000000000000000000000000000000000008152600401610a6e9061376c565b60405180910390fd5b6004600083815260200190815260200160002060009054906101000a900473ffffffffffffffffffffffffffffffffffffffff169050919050565b60128054610abf906136c8565b80601f0160208091040260200160405190810160405280929190818152602001828054610aeb906136c8565b8015610b385780601f10610b0d57610100808354040283529160200191610b38565b820191906000526020600020905b815481529060010190602001808311610b1b57829003601f168201915b505050505081565b6000610b4b826110f3565b90508073ffffffffffffffffffffffffffffffffffffffff168373ffffffffffffffffffffffffffffffffffffffff161415610bbc576040517f08c379a0000000000000000000000000000000000000000000000000000000008152600401610bb3906137fe565b60405180910390fd5b8073ffffffffffffffffffffffffffffffffffffffff16610bdb611c49565b73ffffffffffffffffffffffffffffffffffffffff161480610c0a5750610c0981610c04611c49565b611945565b5b610c49576040517f08c379a0000000000000000000000000000000000000000000000000000000008152600401610c4090613890565b60405180910390fd5b610c538383611cbd565b505050565b600e5481565b6000600880549050905090565b60105481565b610c82610c7c611c49565b82611d76565b610cc1576040517f08c379a0000000000000000000000000000000000000000000000000000000008152600401610cb890613922565b60405180910390fd5b610ccc838383611e54565b505050565b6000610cdc836111a5565b8210610d1d576040517f08c379a0000000000000000000000000000000000000000000000000000000008152600401610d14906139b4565b60405180910390fd5b600660008473ffffffffffffffffffffffffffffffffffffffff1673ffffffffffffffffffffffffffffffffffffffff168152602001908152602001600020600083815260200190815260200160002054905092915050565b610d7e611c49565b73ffffffffffffffffffffffffffffffffffffffff16610d9c61136b565b73ffffffffffffffffffffffffffffffffffffffff1614610df2576040517f08c379a0000000000000000000000000000000000000000000000000000000008152600401610de990613679565b60405180910390fd5b6000610dfc61136b565b73ffffffffffffffffffffffffffffffffffffffff1647604051610e1f90613a05565b60006040518083038185875af1925050503d8060008114610e5c576040519150601f19603f3d011682016040523d82523d6000602084013e610e61565b606091505b5050905080610e6f57600080fd5b50565b610e8d8383836040518060200160405280600081525061164f565b505050565b60606000610e9f836111a5565b905060008167ffffffffffffffff811115610ebd57610ebc613315565b5b604051908082528060200260200182016040528015610eeb5781602001602082028036833780820191505090505b50905060005b82811015610f3557610f038582610cd1565b828281518110610f1657610f15613a1a565b5b6020026020010181815250508080610f2d90613a78565b915050610ef1565b508092505050919050565b610f48611c49565b73ffffffffffffffffffffffffffffffffffffffff16610f6661136b565b73ffffffffffffffffffffffffffffffffffffffff1614610fbc576040517f08c379a0000000000000000000000000000000000000000000000000000000008152600401610fb390613679565b60405180910390fd5b80600e8190555050565b6000610fd0610c5e565b8210611011576040517f08c379a000000000000000000000000000000000000000000000000000000000815260040161100890613b33565b60405180910390fd5b6008828154811061102557611024613a1a565b5b90600052602060002001549050919050565b601160019054906101000a900460ff1681565b611052611c49565b73ffffffffffffffffffffffffffffffffffffffff1661107061136b565b73ffffffffffffffffffffffffffffffffffffffff16146110c6576040517f08c379a00000000000000000000000000000000000000000000000000000000081526004016110bd90613679565b60405180910390fd5b80600c90805190602001906110dc929190612dd0565b5050565b601160009054906101000a900460ff1681565b6000806002600084815260200190815260200160002060009054906101000a900473ffffffffffffffffffffffffffffffffffffffff169050600073ffffffffffffffffffffffffffffffffffffffff168173ffffffffffffffffffffffffffffffffffffffff16141561119c576040517f08c379a000000000000000000000000000000000000000000000000000000000815260040161119390613bc5565b60405180910390fd5b80915050919050565b60008073ffffffffffffffffffffffffffffffffffffffff168273ffffffffffffffffffffffffffffffffffffffff161415611216576040517f08c379a000000000000000000000000000000000000000000000000000000000815260040161120d90613c57565b60405180910390fd5b600360008373ffffffffffffffffffffffffffffffffffffffff1673ffffffffffffffffffffffffffffffffffffffff168152602001908152602001600020549050919050565b611265611c49565b73ffffffffffffffffffffffffffffffffffffffff1661128361136b565b73ffffffffffffffffffffffffffffffffffffffff16146112d9576040517f08c379a00000000000000000000000000000000000000000000000000000000081526004016112d090613679565b60405180910390fd5b6112e360006120b0565b565b6112ed611c49565b73ffffffffffffffffffffffffffffffffffffffff1661130b61136b565b73ffffffffffffffffffffffffffffffffffffffff1614611361576040517f08c379a000000000000000000000000000000000000000000000000000000000815260040161135890613679565b60405180910390fd5b8060108190555050565b6000600a60009054906101000a900473ffffffffffffffffffffffffffffffffffffffff16905090565b6060600180546113a4906136c8565b80601f01602080910402602001604051908101604052809291908181526020018280546113d0906136c8565b801561141d5780601f106113f25761010080835404028352916020019161141d565b820191906000526020600020905b81548152906001019060200180831161140057829003601f168201915b5050505050905090565b6000611431610c5e565b9050601160009054906101000a900460ff1615611483576040517f08c379a000000000000000000000000000000000000000000000000000000000815260040161147a90613cc3565b60405180910390fd5b600082116114c6576040517f08c379a00000000000000000000000000000000000000000000000000000000081526004016114bd90613d2f565b60405180910390fd5b60105482111561150b576040517f08c379a000000000000000000000000000000000000000000000000000000000815260040161150290613dc1565b60405180910390fd5b600f54828261151a9190613de1565b111561155b576040517f08c379a000000000000000000000000000000000000000000000000000000000815260040161155290613e83565b60405180910390fd5b6000600190505b82811161159b5761157e3382846115799190613de1565b612176565b611588600b612194565b808061159390613a78565b915050611562565b505050565b6115b26115ab611c49565b83836121aa565b5050565b6115be611c49565b73ffffffffffffffffffffffffffffffffffffffff166115dc61136b565b73ffffffffffffffffffffffffffffffffffffffff1614611632576040517f08c379a000000000000000000000000000000000000000000000000000000000815260040161162990613679565b60405180910390fd5b6001601160016101000a81548160ff021916908315150217905550565b61166061165a611c49565b83611d76565b61169f576040517f08c379a000000000000000000000000000000000000000000000000000000000815260040161169690613922565b60405180910390fd5b6116ab84848484612317565b50505050565b600d80546116be906136c8565b80601f01602080910402602001604051908101604052809291908181526020018280546116ea906136c8565b80156117375780601f1061170c57610100808354040283529160200191611737565b820191906000526020600020905b81548152906001019060200180831161171a57829003601f168201915b505050505081565b606061174a82611c51565b611789576040517f08c379a000000000000000000000000000000000000000000000000000000000815260040161178090613f15565b60405180910390fd5b60001515601160019054906101000a900460ff161515141561183757601280546117b2906136c8565b80601f01602080910402602001604051908101604052809291908181526020018280546117de906136c8565b801561182b5780601f106118005761010080835404028352916020019161182b565b820191906000526020600020905b81548152906001019060200180831161180e57829003601f168201915b50505050509050611893565b6000611841612373565b90506000815111611861576040518060200160405280600081525061188f565b8061186b84612405565b600d60405160200161187f93929190614005565b6040516020818303038152906040525b9150505b919050565b600f5481565b6118a6611c49565b73ffffffffffffffffffffffffffffffffffffffff166118c461136b565b73ffffffffffffffffffffffffffffffffffffffff161461191a576040517f08c379a000000000000000000000000000000000000000000000000000000000815260040161191190613679565b60405180910390fd5b80600d9080519060200190611930929190612dd0565b5050565b6000611940600b612566565b905090565b6000600560008473ffffffffffffffffffffffffffffffffffffffff1673ffffffffffffffffffffffffffffffffffffffff16815260200190815260200160002060008373ffffffffffffffffffffffffffffffffffffffff1673ffffffffffffffffffffffffffffffffffffffff16815260200190815260200160002060009054906101000a900460ff16905092915050565b6119e1611c49565b73ffffffffffffffffffffffffffffffffffffffff166119ff61136b565b73ffffffffffffffffffffffffffffffffffffffff1614611a55576040517f08c379a0000000000000000000000000000000000000000000000000000000008152600401611a4c90613679565b60405180910390fd5b8060129080519060200190611a6b929190612dd0565b5050565b611a77611c49565b73ffffffffffffffffffffffffffffffffffffffff16611a9561136b565b73ffffffffffffffffffffffffffffffffffffffff1614611aeb576040517f08c379a0000000000000000000000000000000000000000000000000000000008152600401611ae290613679565b60405180910390fd5b600073ffffffffffffffffffffffffffffffffffffffff168173ffffffffffffffffffffffffffffffffffffffff161415611b5b576040517f08c379a0000000000000000000000000000000000000000000000000000000008152600401611b52906140a8565b60405180910390fd5b611b64816120b0565b50565b60007f80ac58cd000000000000000000000000000000000000000000000000000000007bffffffffffffffffffffffffffffffffffffffffffffffffffffffff1916827bffffffffffffffffffffffffffffffffffffffffffffffffffffffff19161480611c3257507f5b5e139f000000000000000000000000000000000000000000000000000000007bffffffffffffffffffffffffffffffffffffffffffffffffffffffff1916827bffffffffffffffffffffffffffffffffffffffffffffffffffffffff1916145b80611c425750611c4182612574565b5b9050919050565b600033905090565b60008073ffffffffffffffffffffffffffffffffffffffff166002600084815260200190815260200160002060009054906101000a900473ffffffffffffffffffffffffffffffffffffffff1673ffffffffffffffffffffffffffffffffffffffff1614159050919050565b816004600083815260200190815260200160002060006101000a81548173ffffffffffffffffffffffffffffffffffffffff021916908373ffffffffffffffffffffffffffffffffffffffff160217905550808273ffffffffffffffffffffffffffffffffffffffff16611d30836110f3565b73ffffffffffffffffffffffffffffffffffffffff167f8c5be1e5ebec7d5bd14f71427d1e84f3dd0314c0f7b2291e5b200ac8c7c3b92560405160405180910390a45050565b6000611d8182611c51565b611dc0576040517f08c379a0000000000000000000000000000000000000000000000000000000008152600401611db79061413a565b60405180910390fd5b6000611dcb836110f3565b90508073ffffffffffffffffffffffffffffffffffffffff168473ffffffffffffffffffffffffffffffffffffffff161480611e3a57508373ffffffffffffffffffffffffffffffffffffffff16611e2284610a2d565b73ffffffffffffffffffffffffffffffffffffffff16145b80611e4b5750611e4a8185611945565b5b91505092915050565b8273ffffffffffffffffffffffffffffffffffffffff16611e74826110f3565b73ffffffffffffffffffffffffffffffffffffffff1614611eca576040517f08c379a0000000000000000000000000000000000000000000000000000000008152600401611ec1906141cc565b60405180910390fd5b600073ffffffffffffffffffffffffffffffffffffffff168273ffffffffffffffffffffffffffffffffffffffff161415611f3a576040517f08c379a0000000000000000000000000000000000000000000000000000000008152600401611f319061425e565b60405180910390fd5b611f458383836125de565b611f50600082611cbd565b6001600360008573ffffffffffffffffffffffffffffffffffffffff1673ffffffffffffffffffffffffffffffffffffffff1681526020019081526020016000206000828254611fa0919061427e565b925050819055506001600360008473ffffffffffffffffffffffffffffffffffffffff1673ffffffffffffffffffffffffffffffffffffffff1681526020019081526020016000206000828254611ff79190613de1565b92505081905550816002600083815260200190815260200160002060006101000a81548173ffffffffffffffffffffffffffffffffffffffff021916908373ffffffffffffffffffffffffffffffffffffffff160217905550808273ffffffffffffffffffffffffffffffffffffffff168473ffffffffffffffffffffffffffffffffffffffff167fddf252ad1be2c89b69c2b068fc378daa952ba7f163c4a11628f55a4df523b3ef60405160405180910390a4505050565b6000600a60009054906101000a900473ffffffffffffffffffffffffffffffffffffffff16905081600a60006101000a81548173ffffffffffffffffffffffffffffffffffffffff021916908373ffffffffffffffffffffffffffffffffffffffff1602179055508173ffffffffffffffffffffffffffffffffffffffff168173ffffffffffffffffffffffffffffffffffffffff167f8be0079c531659141344cd1fd0a4f28419497f9722a3daafe3b4186f6b6457e060405160405180910390a35050565b6121908282604051806020016040528060008152506126f2565b5050565b6001816000016000828254019250508190555050565b8173ffffffffffffffffffffffffffffffffffffffff168373ffffffffffffffffffffffffffffffffffffffff161415612219576040517f08c379a0000000000000000000000000000000000000000000000000000000008152600401612210906142fe565b60405180910390fd5b80600560008573ffffffffffffffffffffffffffffffffffffffff1673ffffffffffffffffffffffffffffffffffffffff16815260200190815260200160002060008473ffffffffffffffffffffffffffffffffffffffff1673ffffffffffffffffffffffffffffffffffffffff16815260200190815260200160002060006101000a81548160ff0219169083151502179055508173ffffffffffffffffffffffffffffffffffffffff168373ffffffffffffffffffffffffffffffffffffffff167f17307eab39ab6107e8899845ad3d59bd9653f200f220920489ca2b5937696c318360405161230a9190612f27565b60405180910390a3505050565b612322848484611e54565b61232e8484848461274d565b61236d576040517f08c379a000000000000000000000000000000000000000000000000000000000815260040161236490614390565b60405180910390fd5b50505050565b6060600c8054612382906136c8565b80601f01602080910402602001604051908101604052809291908181526020018280546123ae906136c8565b80156123fb5780601f106123d0576101008083540402835291602001916123fb565b820191906000526020600020905b8154815290600101906020018083116123de57829003601f168201915b5050505050905090565b6060600082141561244d576040518060400160405280600181526020017f30000000000000000000000000000000000000000000000000000000000000008152509050612561565b600082905060005b6000821461247f57808061246890613a78565b915050600a8261247891906143df565b9150612455565b60008167ffffffffffffffff81111561249b5761249a613315565b5b6040519080825280601f01601f1916602001820160405280156124cd5781602001600182028036833780820191505090505b5090505b6000851461255a576001826124e6919061427e565b9150600a856124f59190614410565b60306125019190613de1565b60f81b81838151811061251757612516613a1a565b5b60200101907effffffffffffffffffffffffffffffffffffffffffffffffffffffffffffff1916908160001a905350600a8561255391906143df565b94506124d1565b8093505050505b919050565b600081600001549050919050565b60007f01ffc9a7000000000000000000000000000000000000000000000000000000007bffffffffffffffffffffffffffffffffffffffffffffffffffffffff1916827bffffffffffffffffffffffffffffffffffffffffffffffffffffffff1916149050919050565b6125e98383836128e4565b600073ffffffffffffffffffffffffffffffffffffffff168373ffffffffffffffffffffffffffffffffffffffff16141561262c57612627816128e9565b61266b565b8173ffffffffffffffffffffffffffffffffffffffff168373ffffffffffffffffffffffffffffffffffffffff161461266a576126698382612932565b5b5b600073ffffffffffffffffffffffffffffffffffffffff168273ffffffffffffffffffffffffffffffffffffffff1614156126ae576126a981612a9f565b6126ed565b8273ffffffffffffffffffffffffffffffffffffffff168273ffffffffffffffffffffffffffffffffffffffff16146126ec576126eb8282612b70565b5b5b505050565b6126fc8383612bef565b612709600084848461274d565b612748576040517f08c379a000000000000000000000000000000000000000000000000000000000815260040161273f90614390565b60405180910390fd5b505050565b600061276e8473ffffffffffffffffffffffffffffffffffffffff16612dbd565b156128d7578373ffffffffffffffffffffffffffffffffffffffff1663150b7a02612797611c49565b8786866040518563ffffffff1660e01b81526004016127b99493929190614496565b602060405180830381600087803b1580156127d357600080fd5b505af192505050801561280457506040513d601f19601f8201168201806040525081019061280191906144f7565b60015b612887573d8060008114612834576040519150601f19603f3d011682016040523d82523d6000602084013e612839565b606091505b5060008151141561287f576040517f08c379a000000000000000000000000000000000000000000000000000000000815260040161287690614390565b60405180910390fd5b805181602001fd5b63150b7a0260e01b7bffffffffffffffffffffffffffffffffffffffffffffffffffffffff1916817bffffffffffffffffffffffffffffffffffffffffffffffffffffffff1916149150506128dc565b600190505b949350505050565b505050565b6008805490506009600083815260200190815260200160002081905550600881908060018154018082558091505060019003906000526020600020016000909190919091505550565b6000600161293f846111a5565b612949919061427e565b9050600060076000848152602001908152602001600020549050818114612a2e576000600660008673ffffffffffffffffffffffffffffffffffffffff1673ffffffffffffffffffffffffffffffffffffffff168152602001908152602001600020600084815260200190815260200160002054905080600660008773ffffffffffffffffffffffffffffffffffffffff1673ffffffffffffffffffffffffffffffffffffffff168152602001908152602001600020600084815260200190815260200160002081905550816007600083815260200190815260200160002081905550505b6007600084815260200190815260200160002060009055600660008573ffffffffffffffffffffffffffffffffffffffff1673ffffffffffffffffffffffffffffffffffffffff16815260200190815260200160002060008381526020019081526020016000206000905550505050565b60006001600880549050612ab3919061427e565b9050600060096000848152602001908152602001600020549050600060088381548110612ae357612ae2613a1a565b5b906000526020600020015490508060088381548110612b0557612b04613a1a565b5b906000526020600020018190555081600960008381526020019081526020016000208190555060096000858152602001908152602001600020600090556008805480612b5457612b53614524565b5b6001900381819060005260206000200160009055905550505050565b6000612b7b836111a5565b905081600660008573ffffffffffffffffffffffffffffffffffffffff1673ffffffffffffffffffffffffffffffffffffffff168152602001908152602001600020600083815260200190815260200160002081905550806007600084815260200190815260200160002081905550505050565b600073ffffffffffffffffffffffffffffffffffffffff168273ffffffffffffffffffffffffffffffffffffffff161415612c5f576040517f08c379a0000000000000000000000000000000000000000000000000000000008152600401612c569061459f565b60405180910390fd5b612c6881611c51565b15612ca8576040517f08c379a0000000000000000000000000000000000000000000000000000000008152600401612c9f9061460b565b60405180910390fd5b612cb4600083836125de565b6001600360008473ffffffffffffffffffffffffffffffffffffffff1673ffffffffffffffffffffffffffffffffffffffff1681526020019081526020016000206000828254612d049190613de1565b92505081905550816002600083815260200190815260200160002060006101000a81548173ffffffffffffffffffffffffffffffffffffffff021916908373ffffffffffffffffffffffffffffffffffffffff160217905550808273ffffffffffffffffffffffffffffffffffffffff16600073ffffffffffffffffffffffffffffffffffffffff167fddf252ad1be2c89b69c2b068fc378daa952ba7f163c4a11628f55a4df523b3ef60405160405180910390a45050565b600080823b905060008111915050919050565b828054612ddc906136c8565b90600052602060002090601f016020900481019282612dfe5760008555612e45565b82601f10612e1757805160ff1916838001178555612e45565b82800160010185558215612e45579182015b82811115612e44578251825591602001919060010190612e29565b5b509050612e529190612e56565b5090565b5b80821115612e6f576000816000905550600101612e57565b5090565b6000604051905090565b600080fd5b600080fd5b60007fffffffff0000000000000000000000000000000000000000000000000000000082169050919050565b612ebc81612e87565b8114612ec757600080fd5b50565b600081359050612ed981612eb3565b92915050565b600060208284031215612ef557612ef4612e7d565b5b6000612f0384828501612eca565b91505092915050565b60008115159050919050565b612f2181612f0c565b82525050565b6000602082019050612f3c6000830184612f18565b92915050565b612f4b81612f0c565b8114612f5657600080fd5b50565b600081359050612f6881612f42565b92915050565b600060208284031215612f8457612f83612e7d565b5b6000612f9284828501612f59565b91505092915050565b600081519050919050565b600082825260208201905092915050565b60005b83811015612fd5578082015181840152602081019050612fba565b83811115612fe4576000848401525b50505050565b6000601f19601f8301169050919050565b600061300682612f9b565b6130108185612fa6565b9350613020818560208601612fb7565b61302981612fea565b840191505092915050565b6000602082019050818103600083015261304e8184612ffb565b905092915050565b6000819050919050565b61306981613056565b811461307457600080fd5b50565b60008135905061308681613060565b92915050565b6000602082840312156130a2576130a1612e7d565b5b60006130b084828501613077565b91505092915050565b600073ffffffffffffffffffffffffffffffffffffffff82169050919050565b60006130e4826130b9565b9050919050565b6130f4816130d9565b82525050565b600060208201905061310f60008301846130eb565b92915050565b61311e816130d9565b811461312957600080fd5b50565b60008135905061313b81613115565b92915050565b6000806040838503121561315857613157612e7d565b5b60006131668582860161312c565b925050602061317785828601613077565b9150509250929050565b61318a81613056565b82525050565b60006020820190506131a56000830184613181565b92915050565b6000806000606084860312156131c4576131c3612e7d565b5b60006131d28682870161312c565b93505060206131e38682870161312c565b92505060406131f486828701613077565b9150509250925092565b60006020828403121561321457613213612e7d565b5b60006132228482850161312c565b91505092915050565b600081519050919050565b600082825260208201905092915050565b6000819050602082019050919050565b61326081613056565b82525050565b60006132728383613257565b60208301905092915050565b6000602082019050919050565b60006132968261322b565b6132a08185613236565b93506132ab83613247565b8060005b838110156132dc5781516132c38882613266565b97506132ce8361327e565b9250506001810190506132af565b5085935050505092915050565b60006020820190508181036000830152613303818461328b565b905092915050565b600080fd5b600080fd5b7f4e487b7100000000000000000000000000000000000000000000000000000000600052604160045260246000fd5b61334d82612fea565b810181811067ffffffffffffffff8211171561336c5761336b613315565b5b80604052505050565b600061337f612e73565b905061338b8282613344565b919050565b600067ffffffffffffffff8211156133ab576133aa613315565b5b6133b482612fea565b9050602081019050919050565b82818337600083830152505050565b60006133e36133de84613390565b613375565b9050828152602081018484840111156133ff576133fe613310565b5b61340a8482856133c1565b509392505050565b600082601f8301126134275761342661330b565b5b81356134378482602086016133d0565b91505092915050565b60006020828403121561345657613455612e7d565b5b600082013567ffffffffffffffff81111561347457613473612e82565b5b61348084828501613412565b91505092915050565b600080604083850312156134a05761349f612e7d565b5b60006134ae8582860161312c565b92505060206134bf85828601612f59565b9150509250929050565b600067ffffffffffffffff8211156134e4576134e3613315565b5b6134ed82612fea565b9050602081019050919050565b600061350d613508846134c9565b613375565b90508281526020810184848401111561352957613528613310565b5b6135348482856133c1565b509392505050565b600082601f8301126135515761355061330b565b5b81356135618482602086016134fa565b91505092915050565b6000806000806080858703121561358457613583612e7d565b5b60006135928782880161312c565b94505060206135a38782880161312c565b93505060406135b487828801613077565b925050606085013567ffffffffffffffff8111156135d5576135d4612e82565b5b6135e18782880161353c565b91505092959194509250565b6000806040838503121561360457613603612e7d565b5b60006136128582860161312c565b92505060206136238582860161312c565b9150509250929050565b7f4f776e61626c653a2063616c6c6572206973206e6f7420746865206f776e6572600082015250565b6000613663602083612fa6565b915061366e8261362d565b602082019050919050565b6000602082019050818103600083015261369281613656565b9050919050565b7f4e487b7100000000000000000000000000000000000000000000000000000000600052602260045260246000fd5b600060028204905060018216806136e057607f821691505b602082108114156136f4576136f3613699565b5b50919050565b7f4552433732313a20617070726f76656420717565727920666f72206e6f6e657860008201527f697374656e7420746f6b656e0000000000000000000000000000000000000000602082015250565b6000613756602c83612fa6565b9150613761826136fa565b604082019050919050565b6000602082019050818103600083015261378581613749565b9050919050565b7f4552433732313a20617070726f76616c20746f2063757272656e74206f776e6560008201527f7200000000000000000000000000000000000000000000000000000000000000602082015250565b60006137e8602183612fa6565b91506137f38261378c565b604082019050919050565b60006020820190508181036000830152613817816137db565b9050919050565b7f4552433732313a20617070726f76652063616c6c6572206973206e6f74206f7760008201527f6e6572206e6f7220617070726f76656420666f7220616c6c0000000000000000602082015250565b600061387a603883612fa6565b91506138858261381e565b604082019050919050565b600060208201905081810360008301526138a98161386d565b9050919050565b7f4552433732313a207472616e736665722063616c6c6572206973206e6f74206f60008201527f776e6572206e6f7220617070726f766564000000000000000000000000000000602082015250565b600061390c603183612fa6565b9150613917826138b0565b604082019050919050565b6000602082019050818103600083015261393b816138ff565b9050919050565b7f455243373231456e756d657261626c653a206f776e657220696e646578206f7560008201527f74206f6620626f756e6473000000000000000000000000000000000000000000602082015250565b600061399e602b83612fa6565b91506139a982613942565b604082019050919050565b600060208201905081810360008301526139cd81613991565b9050919050565b600081905092915050565b50565b60006139ef6000836139d4565b91506139fa826139df565b600082019050919050565b6000613a10826139e2565b9150819050919050565b7f4e487b7100000000000000000000000000000000000000000000000000000000600052603260045260246000fd5b7f4e487b7100000000000000000000000000000000000000000000000000000000600052601160045260246000fd5b6000613a8382613056565b91507fffffffffffffffffffffffffffffffffffffffffffffffffffffffffffffffff821415613ab657613ab5613a49565b5b600182019050919050565b7f455243373231456e756d657261626c653a20676c6f62616c20696e646578206f60008201527f7574206f6620626f756e64730000000000000000000000000000000000000000602082015250565b6000613b1d602c83612fa6565b9150613b2882613ac1565b604082019050919050565b60006020820190508181036000830152613b4c81613b10565b9050919050565b7f4552433732313a206f776e657220717565727920666f72206e6f6e657869737460008201527f656e7420746f6b656e0000000000000000000000000000000000000000000000602082015250565b6000613baf602983612fa6565b9150613bba82613b53565b604082019050919050565b60006020820190508181036000830152613bde81613ba2565b9050919050565b7f4552433732313a2062616c616e636520717565727920666f7220746865207a6560008201527f726f206164647265737300000000000000000000000000000000000000000000602082015250565b6000613c41602a83612fa6565b9150613c4c82613be5565b604082019050919050565b60006020820190508181036000830152613c7081613c34565b9050919050565b7f546865206d696e7420686173206e6f7420737461727465642079657421000000600082015250565b6000613cad601d83612fa6565b9150613cb882613c77565b602082019050919050565b60006020820190508181036000830152613cdc81613ca0565b9050919050565b7f43616e74206d696e74206c697374207468616e2031204e465473000000000000600082015250565b6000613d19601a83612fa6565b9150613d2482613ce3565b602082019050919050565b60006020820190508181036000830152613d4881613d0c565b9050919050565b7f43616e74206d696e74206d6f7265207468616e206d6178696d756d206c696d6960008201527f7400000000000000000000000000000000000000000000000000000000000000602082015250565b6000613dab602183612fa6565b9150613db682613d4f565b604082019050919050565b60006020820190508181036000830152613dda81613d9e565b9050919050565b6000613dec82613056565b9150613df783613056565b9250827fffffffffffffffffffffffffffffffffffffffffffffffffffffffffffffffff03821115613e2c57613e2b613a49565b5b828201905092915050565b7f416c6c20746865204e46547320617265206d696e746564000000000000000000600082015250565b6000613e6d601783612fa6565b9150613e7882613e37565b602082019050919050565b60006020820190508181036000830152613e9c81613e60565b9050919050565b7f4552433732314d657461646174613a2055524920717565727920666f72206e6f60008201527f6e6578697374656e7420746f6b656e0000000000000000000000000000000000602082015250565b6000613eff602f83612fa6565b9150613f0a82613ea3565b604082019050919050565b60006020820190508181036000830152613f2e81613ef2565b9050919050565b600081905092915050565b6000613f4b82612f9b565b613f558185613f35565b9350613f65818560208601612fb7565b80840191505092915050565b60008190508160005260206000209050919050565b60008154613f93816136c8565b613f9d8186613f35565b94506001821660008114613fb85760018114613fc957613ffc565b60ff19831686528186019350613ffc565b613fd285613f71565b60005b83811015613ff457815481890152600182019150602081019050613fd5565b838801955050505b50505092915050565b60006140118286613f40565b915061401d8285613f40565b91506140298284613f86565b9150819050949350505050565b7f4f776e61626c653a206e6577206f776e657220697320746865207a65726f206160008201527f6464726573730000000000000000000000000000000000000000000000000000602082015250565b6000614092602683612fa6565b915061409d82614036565b604082019050919050565b600060208201905081810360008301526140c181614085565b9050919050565b7f4552433732313a206f70657261746f7220717565727920666f72206e6f6e657860008201527f697374656e7420746f6b656e0000000000000000000000000000000000000000602082015250565b6000614124602c83612fa6565b915061412f826140c8565b604082019050919050565b6000602082019050818103600083015261415381614117565b9050919050565b7f4552433732313a207472616e73666572206f6620746f6b656e2074686174206960008201527f73206e6f74206f776e0000000000000000000000000000000000000000000000602082015250565b60006141b6602983612fa6565b91506141c18261415a565b604082019050919050565b600060208201905081810360008301526141e5816141a9565b9050919050565b7f4552433732313a207472616e7366657220746f20746865207a65726f2061646460008201527f7265737300000000000000000000000000000000000000000000000000000000602082015250565b6000614248602483612fa6565b9150614253826141ec565b604082019050919050565b600060208201905081810360008301526142778161423b565b9050919050565b600061428982613056565b915061429483613056565b9250828210156142a7576142a6613a49565b5b828203905092915050565b7f4552433732313a20617070726f766520746f2063616c6c657200000000000000600082015250565b60006142e8601983612fa6565b91506142f3826142b2565b602082019050919050565b60006020820190508181036000830152614317816142db565b9050919050565b7f4552433732313a207472616e7366657220746f206e6f6e20455243373231526560008201527f63656976657220696d706c656d656e7465720000000000000000000000000000602082015250565b600061437a603283612fa6565b91506143858261431e565b604082019050919050565b600060208201905081810360008301526143a98161436d565b9050919050565b7f4e487b7100000000000000000000000000000000000000000000000000000000600052601260045260246000fd5b60006143ea82613056565b91506143f583613056565b925082614405576144046143b0565b5b828204905092915050565b600061441b82613056565b915061442683613056565b925082614436576144356143b0565b5b828206905092915050565b600081519050919050565b600082825260208201905092915050565b600061446882614441565b614472818561444c565b9350614482818560208601612fb7565b61448b81612fea565b840191505092915050565b60006080820190506144ab60008301876130eb565b6144b860208301866130eb565b6144c56040830185613181565b81810360608301526144d7818461445d565b905095945050505050565b6000815190506144f181612eb3565b92915050565b60006020828403121561450d5761450c612e7d565b5b600061451b848285016144e2565b91505092915050565b7f4e487b7100000000000000000000000000000000000000000000000000000000600052603160045260246000fd5b7f4552433732313a206d696e7420746f20746865207a65726f2061646472657373600082015250565b6000614589602083612fa6565b915061459482614553565b602082019050919050565b600060208201905081810360008301526145b88161457c565b9050919050565b7f4552433732313a20746f6b656e20616c7265616479206d696e74656400000000600082015250565b60006145f5601c83612fa6565b9150614600826145bf565b602082019050919050565b60006020820190508181036000830152614624816145e8565b905091905056fea26469706673582212205177d919a6271f6da494d616090be795c24cd7fe2cf52da8bc3ebaf1338ae8f964736f6c63430008090033",
  "linkReferences": {},
  "deployedLinkReferences": {}
}